:0E09B100446174653A200054696D653A200077
:06092800C2A58F80D2A7DA
:10092E00E4FFFE758CFC758A66D28C308DFDC28C10
:0D093E00C28D0FBF00010EBE03E9BFE8E649
:01094B002289
:0809D800C2A6120928C2A722E1
:10097B007F381209D87F0C1209D87F061209D87F4D
:04098B00010209D884
:0809E000D2A6120928C2A722C9
:100903008B188A19891AAB18AA19A91A12094C60EB
:1009130013051AE51A7002051914F912094CFF128E
:0509230009E080E22262
:0509E800C2B5C2B622F9
:10098F00E4FEEF1392B4D2B6EFC313FFC2B60EBE9E
:02099F0008F05E
:0109A1002233
:10096500E4FFFEEFC313FF30B403430780D2B6C2E2
:05097500B60EBE08EE05
:01097A00225A
:0D09BF00D2B512098FAF0512098FC2B52203
:0E09A200D2B5EF4401FF12098F120965C2B5EC
:0109B0002224
:10080000EF75F00A842430F50DEF75F00A84E5F0F9
:100810002430F50E750F2FED75F00A842430F51095
:10082000ED75F00A84E5F02430F51175122F75137B
:1008300032751430EB75F00A842430F515EB75F041
:100840000A84E5F02430F516E4F5177F801209D804
:100850007BFF7A0979B11209037B007A00790D02D6
:0208600009038A
:10086200EF75F00A842430F50DEF75F00A84E5F097
:100872002430F50E750F3AED75F00A842430F51028
:10088200ED75F00A84E5F02430F51175123AEB7536
:10089200F00A842430F513EB75F00A84E5F0243075
:1008A200F514E4F5157FC01209D87BFF7A0979B8EF
:0C08B2001209037B007A00790D02090393
:1008BE001209E812097B7F811209A28F087F831229
:1008CE0009A28F097F851209A28F0A7F871209A2BA
:1008DE008F0B7F891209A28F0C7F8C1209A2AB0796
:1008EE00AD0CAF0B120800AB08AD09AF0A120862CF
:0508FE0012092E80C16B
:030000000209CC26
:0C09CC00787FE4F6D8FD75811A0208BEA1
:10094C00BB010689828A83E0225002E722BBFE02A9
:09095C00E32289828A83E49322DC
:00000001FF
