:0C02DB0054494D453A00444154453A0056
:0502FD00D2B6C2B622DA
:0A02F300EF4E6003D2B422C2B42221
:04013000AD07AC0665
:10013400E4FBFAAF037E007401A807088005C3330B
:10014400CE33CED8F9FFEE5CFEEF5DFF1202F31260
:0D01540002FD0BBB00010AEB64084A70D6E7
:01016100227B
:1000FB009000007E00120130E4FDFCE583C313F594
:10010B0083E58213F58230B40543828080065382E7
:10011B007F7583001202FD0DBD00010CED64084CD0
:04012B0070D9AF8256
:01012F0022AD
:1002C800A905D2B57E00120130AF017E00120130BF
:0302D800C2B5228A
:10000300D2B57FBF7E00120130E4FDFCE4F583F539
:1000130082FBFAE583C313F583E58213F58230B4DB
:1000230005438280800653827F7583001202FD0B95
:10003300BB00010AEB64084A70D9ED25E02408F8F7
:10004300A68308A6820DBD00010CED64084C70BCAC
:02005300C2B534
:010055002288
:1001E100C2B5C2B6E4FD7F8E1202C87DAB7F90120C
:1001F10002C87F811200FBEF54816007E4FD7F801C
:030201001202C81E
:0102040022D7
:100225008F208D21AF03AD077F801202C8AD217FDE
:0B023500821202C8AD207F840202C8C4
:100289008F20E520C4540F2430FF120271E5205459
:070299000F2430FF02027187
:1000A900E4FDFF1202B47BFF7A0279DB12018F7D36
:1000B90006E4FF1202B4AF0D1202897F3A120271EF
:1000C9007F0A7E001202057D09E4FF1202B4AF0B1C
:1000D9001202897F3A1202717F0A7E001202057D9F
:1000E9000CE4FF1202B4AF091202897F0A7E0002F2
:0200F9000205FE
:100240008D208B21AD077F861202C8AD207F8812DA
:0902500002C8AD217F8C0202C836
:10005600E4FD7F011202B47BFF7A0279E112018F7F
:100066007D067F011202B4AF0F1202897F3A120297
:10007600717F0A7E001202057D097F011202B4AF6C
:10008600111202897F3A1202717F0A7E001202055E
:100096007D0C7F011202B4AF151202897F0A7E0021
:0300A6000202054E
:1001BA001202A01201E17B597D597F231202257B8D
:1001CA00237D127F31120240D2B5120003C2B5124A
:0701DA0000A912005680F19C
:1002A0007F381202597F0C1202597F011202597FC6
:0402B000800202596D
:100259008F80C2A5C2A6D2A77F017E00120205C265
:08026900A77F027E00020205DE
:100271008F80C2A5D2A6D2A77F647E00120205C2DA
:08028100A77FC87E0002020500
:06018F008B208A21892269
:10019500E4F523F524AB20AA21A922852482852311
:1001A50083120162FF600D1202710524E52470E5DA
:0401B500052380E1BD
:0101B9002223
:1002B400EF7007ED2480F5208005ED24C0F520AF14
:0402C40020020259B9
:10020500E4FDFCC3ED9FEC9E5015E4FBFA0BBB002F
:0F021500010AEB64784A70F50DBD00010C80E41E
:0102240022B7
:030000000202E712
:0C02E700787FE4F6D8FD7581240201BA8E
:10016200BB010CE58229F582E5833AF583E0225052
:1001720006E92582F8E622BBFE06E92582F8E2229C
:0D018200E58229F582E5833AF583E49322B6
:00000001FF
