:030000000208CE25
:0C08CE00787FE4F6D8FD75815E02091504
:100CC20054494D4520200044415445202000504DB8
:070CD20000414D002020004D
:090CFE00015100015000015200F7
:050D0800D2AFD2AC22C5
:0F0CD900758920758DFD758BFF759850D28E2211
:03002300020C725A
:100C7200C0E0C0D075D000C00030980B7418255168
:0E0C8200F8A699C2980551D000D0D0D0E0322B
:050D0D00D2B6C2B622BF
:0A0CF400EF4E6003D2B422C2B42216
:100B1000AD07AC06E4F553F5547E007401A8540803
:100B20008005C333CE33CED8F9FFEE5CF557EF5DC9
:100B3000F558FFAE57120CF4120D0D0554E5547024
:0D0B4000020553C39408E553940040CD22F4
:1009CE00D2B57FBF7E00120B10E4F553F554E4F55B
:1009DE003AF53BF555F556E53AA2E713F53AE53B00
:1009EE0013F53B30B405433B808006533B7F753A8D
:1009FE0000120D0D0556E55670020555C39408E517
:100A0E0055940040D2E55425E02408F8A63A08A6ED
:100A1E003B0554E55470020553C39408E553940006
:050A2E0040ACC2B5223E
:100B4D00E4F53AF53B120B10E4F555F556E53AA2EE
:100B5D00E713F53AE53B13F53B30B405433B808095
:100B6D0006533B7F753A00120D0D0556E556700282
:0C0B7D000555C39408E555940040D222B1
:100C9000AB05D2B5EF3395E0FE120B10AF03EF3387
:090CA00095E0FE120B10C2B52212
:100BC400AA07AF03A905AD077F80120C90AD017F82
:100BD40082120C90AD027F84120C90AD5C7F861261
:100BE4000C90AD5D7F88120C907D017F8A120C9071
:070BF400AD5E7F8C020C9046
:10095A00E51824D0C454F0FFE51924D04FF53CE53E
:10096A001B24D0C454F0FFE51C24D04FF53FE529E1
:10097A0054D025E0FFE51F24D04FFFE51E24D0FE0A
:10098A00C454F04FF53EE52124D0C454F0FFE522CB
:10099A0024D04FF53DE52424D0C454F0FFE52524A6
:1009AA00D04FF538E52724D0C454F0FFE52824D0E9
:1009BA004FF539853D5C85385DF55EAB3CAD3FAFA3
:0409CA003E020BC41A
:10080000120C52E4FD7F8E120C907DAB7F90120C87
:1008100090755C21755D12755E22E4FB7D597FB198
:10082000120BC4120D08120CD97BFF7A0C79C2127C
:100830000C2D120D127BFF7A0C79C9120C2DD3E509
:10084000506480F8E551648098402874172550F86A
:10085000E6FF3395E0FEEF645C4E7015741825508A
:10086000F8E6B4720CC2AFC2AC12095AE4F550F506
:10087000510550D2B51209CEC2B57D06E4FF120B68
:10088000FBAF0DAD0BAB09120A33E50D5480D394C9
:100890000074809480401BE50D5420D39400748034
:1008A00094807BFF40067A0C79D0800C7A0C79D347
:1008B00080067BFF7A0C79D6120C2D7D067F011203
:0E08C0000BFBAF0FAD11AB15120A8802083EFC
:100C52007F887E13120CE87F02120B897F28120B09
:100C6200897F0C120B897F01120B897F80020B890D
:100B89008F59E55954F0F580C2A6C2A5D2A77F01B5
:100B99007E00120CE8C2A77F017E00120CE8E5591D
:100BA900C454F0F580C2A6C2A5D2A77F017E001267
:0B0BB9000CE8C2A77F017E00020CE8E0
:050AD000540F2430FF6B
:100AD5008F5CE55C54F0F580D2A6C2A5D2A77F0154
:100AE5007E00120CE8C2A77F017E00120CE8E55CCF
:100AF500C454F0F580D2A6C2A5D2A77F017E00120C
:0B0B05000CE8C2A77F017E00020CE894
:050D12007FC0020B8907
:100BFB00EFFB3395E0FAC3EB9402EA6480948050E8
:100C0B0020EFC4333354C04480FFEDFB3395E0FA3F
:100C1B00C3EB9410EA648094805003ED2FFF120B0A
:010C2B00893F
:010C2C0022A5
:100C2D008B598A5A895BAB59AA5AA95B120CA960D8
:100C3D0013055BE55B7002055A14F9120CA9FF123E
:050C4D000AD580E2223F
:060A33008F598D5A8B5B08
:100A39007F01E55920E7027F037804E559A2E7130E
:100A4900D8FB5F2430FF120AD5E559120AD07F3A44
:100A5900120AD57804E55AA2E713D8FB120AD0E5A1
:100A69005A120AD07F3A120AD57804E55BA2E71335
:0F0A7900D8FB120AD0E55B540F2430FF020AD5D8
:100A88008F598D5A8B5B7804E559A2E713D8FB126E
:100A98000AD0E559120AD07F2F120AD57804E55AF0
:100AA800A2E713D8FB120AD0E55A120AD07F2F12F8
:100AB8000AD57804E55BA2E713D8FB120AD0E55BF8
:080AC800540F2430FF020AD58F
:0C0CE800EF4E6007EF1F70F81E80F52231
:1008DA00020800E493A3F8E493A34003F68001F22C
:1008EA0008DFF48029E493A3F85407240CC8C3331F
:1008FA00C4540F4420C8834004F456800146F6DFEE
:10090A00E4800B0102040810204080900CFEE47E73
:10091A00019360BCA3FF543F30E509541FFEE493E2
:10092A00A360010ECF54C025E060A840B8E493A3A9
:10093A00FAE493A3F8E493A3C8C582C8CAC583CAD4
:10094A00F0A3C8C582C8CAC583CADFE9DEE780BE8C
:010D070000EB
:100CA900BB010689828A83E0225002E722BBFE0249
:090CB900E32289828A83E493227C
:00000001FF
