:0E054700446174653A200054696D653A2000E5
:100201001205131205737BFF7A0579477D017F0182
:100211001204DA7BFF7A05794E7D017F021204DA3E
:10022100120104120003751A02AB0DAA0C7D077F9F
:10023100011204767B2F7D097F01120569751A026F
:10024100AB0BAA0A7D0A7F011204767B2F7D0C7FFE
:1002510001120569751A02AB09AA087D0D7F011209
:100261000476751A02AB0FAA0E7D077F021204767F
:100271007B3A7D097F02120569751A02AB11AA103A
:100281007D0A7F021204767B3A7D0C7F021205699A
:10029100751A02AB13AA127D0D7F021204768083B8
:100527000E080017000C001F0017003B00320006E2
:07057300C2B5C2B6C2B422FA
:0303C100EB2DFD24
:0403C4008F16A905E2
:1003C800D2B5E4FBFAAF037E007401A807088005E4
:1003D800C333CE33CED8F9FFEF551624FF92B4D2EB
:1003E800B6C2B60BBB00010AEB64084A70D7E4FA40
:1003F800FBAF037E007401A807088005C333CE3322
:10040800CED8F9FFE9FDEF5D24FF92B4D2B6C2B6AB
:0D0418000BBB00010AEB64084A70D6C2B5A8
:0104250022B4
:02042600AD0720
:10042800E4F9430501D2B5FB7E007401A8030880F6
:1004380005C333CE33CED8F9FFEDF582EF558224CC
:10044800FF92B4C2B6D2B60BBB08DDD2B4E4FBD27D
:10045800B6C2B630B40DA8037401088002C333D8FD
:0D046800FC42010BBB08E8C2B5C2B4AF01F5
:010475002264
:10010400E4FD7F8E1203C4AE08AF097C007D0A12A1
:1001140002E0EFC454F0FBAE08AF097C007D0A1284
:1001240002E07F8C1203C1AE0AAF0B7C007D0A1281
:1001340002E0EFC454F0FBAE0AAF0B7C007D0A1260
:1001440002E07F881203C1AE0CAF0D7C007D0A1261
:1001540002E0EFC454F0FBAE0CAF0D7C007D0A123C
:1001640002E0EB2DFD7F861203C4AE0EAF0F7C00C0
:100174007D0A1202E0EFC454F0FBAE0EAF0F7C0018
:100184007D0A1202E0EB2DFD7F841203C4AE10AF92
:10019400117C007D0A1202E0EFC454F0FBAE10AFF4
:1001A400117C007D0A1202E0EB2DFD7F821203C454
:1001B400AE12AF137C007D0A1202E0EFC454F0FBD0
:1001C400AE12AF137C007D0A1202E0EB2DFD7F809E
:1001D4001203C4AE14AF157C007D0A1202E0EFC412
:1001E40054F0FBAE14AF157C007D0A1202E0EB2D37
:0D01F400FD7F8A1203C47D807F8E0203C44C
:100003007F8C120426AB077A00EAC4F854F0C86860
:10001300FEEBC4540F48FF7C007D0A1202CEEB5462
:100023000F2FF509EC3EF5087F88120426AB07EA8B
:10003300C4F854F0C868FEEBC4540F48FF7D0A129D
:1000430002CEEB540F2FF50BEC3EF50A7F8612041C
:1000530026AB07EAC4F854F0C868FEEBC4540F4853
:10006300FF7D0A1202CEEB540F2FF50DEC3EF50C7B
:100073007F84120426AB07EAC4F854F0C868FEEB89
:10008300C4540F48FF7D0A1202CEEB540F2FF50F15
:10009300EC3EF50E7F82120426AB07EAC4F854F057
:1000A300C868FEEBC4540F48FF7D0A1202CEEB541E
:1000B3000F2FF511EC3EF5107F80120426AB07EAF3
:1000C300C4F854F0C868FEEBC4540F48FF7D0A120D
:1000D30002CEEB540F2FF513EC3EF5127F8A120478
:1000E30026AB07EAC4F854F0C868FEEBC4540F48C3
:1000F300FF7D0A1202CEEB540F2FF515EC3EF514DB
:0101030022D9
:06053800C2A58F80D2A7CE
:08053E007F027EEFDEFEDFFC10
:010546002292
:0A055500C2A6120538C2A702053E37
:0A055F00D2A6120538C2A702053E1D
:1004FD00AE07BE0106ED1444808006BE0207ED2452
:06050D00BFFF120555229C
:100513007F381205557F0C1205557F061205557F4E
:040523000102055577
:0A056900AC031204FDAF0402055FAD
:0604DA008B168A17891839
:1004E0001204FDE4FDAB16AA17A9188D82758300CE
:0C04F0001202A1FF600612055F0D80E9FA
:0104FC0022DD
:0804B3008E1B8F1C8C1D8D1E99
:1004BB007F017E00E4FBEBC3951EE51D6480F874A1
:0E04CB008098500AAC1BAD1C1202CE0B80E8CC
:0104D9002200
:040476008A188B193C
:10047A001204FDAA1AEAD39400402DEA24FFFDE4EF
:10048A0034FFFC7F0A7E001204B3AC18AD19CFCD3D
:10049A00CFCECCCE1202E07C007D0A1202E0ED241F
:0804AA0030FF12055F1A80CD3E
:0104B2002227
:03000000020335C3
:0C033500787FE4F6D8FD75811E02037C81
:1002A100BB010CE58229F582E5833AF583E0225012
:1002B10006E92582F8E622BBFE06E92582F8E2225C
:0D02C100E58229F582E5833AF583E4932276
:1002CE00EF8DF0A4A8F0CF8CF0A428CE8DF0A42E44
:0202DE00FE22FE
:1002E000BC000BBE0029EF8DF084FFADF022E4CC02
:1002F000F875F008EF2FFFEE33FEEC33FCEE9DECCB
:10030000984005FCEE9DFE0FD5F0E9E4CEFD22ED10
:10031000F8F5F0EE8420D21CFEADF075F008EF2F5A
:10032000FFED33FD4007985006D5F0F222C398FD4B
:050330000FD5F0EA22E8
:10034100020201E493A3F8E493A34003F68001F2CF
:1003510008DFF48029E493A3F85407240CC8C333BD
:10036100C4540F4420C8834004F456800146F6DF8C
:10037100E4800B0102040810204080900527E47EF0
:10038100019360BCA3FF543F30E509541FFEE49381
:10039100A360010ECF54C025E060A840B8E493A348
:1003A100FAE493A3F8E493A3C8C582C8CAC583CA73
:1003B100F0A3C8C582C8CAC583CADFE9DEE780BE2B
:0105370000C3
:00000001FF
