:1004C00054696D653A20253032643A253032643AF9
:1004D0002530326400446174653A20253032642F3F
:1004E000253032642F32302530326400456E746519
:1004F000722074696D6520696E2048484D4D5353D4
:1005000044444D4D595920666F726D61743A200014
:0A060E00C2A58F80D2A77F0A7E00EC
:0E061800EF1FAC0670011E4C60030080F32241
:08068300C2A612060EC2A72256
:1005F3007F381206837F0C1206837F061206837FE1
:0B060300011206837F147E000206181F
:08068B00D2A612060EC2A7223E
:1005A9008B338A348935AB33AA34A93512035F609A
:1005B900130535E5357002053414F912035FFF128E
:0505C900068B80E22218
:0506A300C2B5C2B62241
:10063C00E4FEEF1392B4D2B6EFC313FFC2B60EBEF4
:02064C0008F0B4
:01064E002289
:10062600E4FFFEEFC313FF30B403430780D2B6C224
:05063600B60EBE08EE47
:01063B00229C
:0D065E00D2B512063CAF0512063CC2B52213
:0E064F00D2B5EF4401FF12063C120626C2B5DA
:01065D00227A
:10046E007536FF7537047538C0850C39850D3A859C
:10047E000A3B7B007A00792212005F7F801206838E
:10048E007B007A0079221205A97536FF753704753F
:10049E0038D5850B3985083A85093B7B007A00797A
:1004AE002212005F7FC01206837B007A007922023F
:0204BE0005A98E
:10055200AC07AF03AB05AD077F8012065EAD037F2C
:100562008212065EAD047F8412065EAD317F861272
:10057200065EAD327F8812065EAD337F8C02065E68
:0C066B00758920758DFD759850D28E2287
:080693008F993099FDC29922F4
:08069B003098FDC298AF9922CE
:1005CE008B2E8A2F8930AB2EAA2FA93012035F6093
:1005DE00130530E5307002052F14F912035FFF1278
:0505EE00069380E222EB
:1003ED007BFF7A0479EC1205CEE4FE12069B742293
:1003FD002EF8A60774222EF8E6FF1206930EBE0CF9
:10040D00EAE52224D075F00AA4FFE52324D02FFFBE
:10041D00E52424D075F00AA4FEE52524D02EFDE5B3
:10042D002624D075F00AA4FEE52724D02EFBE5285E
:10043D0024D075F00AA4FEE52924D02EF531E52A45
:10044D0024D075F00AA4FEE52B24D02EF532E52C30
:10045D0024D075F00AA4FEE52D24D02EF533020527
:01046D00523C
:100510001206A31205F312066B1203ED7F81120679
:100520004F8F0A7F8312064F8F0D7F8512064F8FE4
:100530000C7F8712064F8F0B7F8912064F8F087F23
:100540008D12064F8F0912046E7FE87E0312061883
:0205500080CA5F
:030000000206777E
:0C067700787FE4F6D8FD7581460205107E
:10035F00BB010689828A83E0225002E722BBFE029C
:09036F00E32289828A83E49322CF
:10000300E5422436F8E60542227833300702783693
:10001300E475F0011203B702035F2000EB7F2ED2D9
:10002300008018EF540F2490D43440D4FF30040BD5
:10003300EF24BFB41A0050032461FFE543600215A7
:10004300430546E5467002054530070D7833E475F0
:10005300F0011203B7EF0203A50205827403D2076E
:100063008003E4C207F5428B338A348935E4F543D0
:10007300F545F546E54360077F2012003E80F575A0
:1000830044FFC201C200C202C203C205C206C208C3
:1000930012000CFF700D3007057F0012004FAF46B2
:1000A300AE4522B4255FC2D5C20412000CFF24D092
:1000B300B40A00501A75F00A784330D50508B6FF24
:1000C3000106C6A426F620D5047002D20380D924E3
:1000D300CFB41A00EF5004C2E5D20402024FD2019A
:1000E30080C6D20080C0D20280BCD2D580BAD205ED
:1000F30080B47F2012003E2002077401B543004004
:10010300F1120003FF12003E020077D208D20680EC
:1001130095120003FB120003FA120003F94A4B7015
:100123000679207A037BFF20022EE543602A7E00B6
:100133008E8275830012037860060EEE654470F0BC
:10014300C2D5EBC0E0EAC0E0E9C0E0EE120296D00F
:10015300E0F9D0E0FAD0E0FB12035FFF60AAEBC046
:10016300E0EAC0E0E9C0E012003ED0E02401F9D0AB
:10017300E03400FAD0E0FBE5440460DCD544D980E8
:10018300877BFF7A027992D202809C791080027970
:1001930008C206C2088008D2D5790A8004790AC247
:1001A300D5E544047002F544E4FAFDFEFF120003B2
:1001B300FC7B08200113120003FD7B1030000A12A0
:1001C3000003FE120003FF7B20EC3382D592D5504F
:1001D30013C3E43000069FFFE49EFEE42001039D69
:1001E300FDE49CFCE4CBF8C201EC700CCFCECDCC8B
:1001F300E824F8F870F38017C3EF33FFEE33FEED16
:1002030033FDEC33FCEB33FB994002FB0FD8E9EBF6
:10021300300105F8D0E0C448B201C0E00AEC4D4E0D
:100223004F78207B0070C2EAB5440040BCC0E012A6
:100233000298D0F0D0E0200104C4C0E0C4B201C0F1
:10024300F0120027D0F0D5F0EB0200771203C701BC
:100253001453018E5800E54C00E14201924F019A7C
:0F02630044019A4900FA4301A0550184460184E1
:100272004501844703405000E92D00ED2E01102B6B
:1002820000F123010E2003292A00A94800000108D9
:100292003F3F3F00790AA2D5200314300509B91067
:1002A200020404B9080104A2D52006025001042068
:1002B20002689202B543005034C0E07F2030031937
:1002C2007F30A20272067205500F1202EFC202C202
:1002D20006C205C2087F30800F300503E9C0E01274
:1002E200003E300503D0E0F9D0E0B543CC3005172D
:1002F2007F30B9100C12003E7F583004077F78809F
:1003020003B9080312003E3002057F2D02003E7F32
:10031200202008F87F2B2006F322920280CF286E3D
:10032200756C6C2900D2011200033001F8C2017809
:100332004330D50108F60200A92D50434958120056
:10034200032403B405004001E490033B9312002F01
:0D035200743A12002FD20375430402018E8D
:10037800BB010CE58229F582E5833AF583E022503A
:1003880006E92582F8E622BBFE06E92582F8E22284
:0D039800E58229F582E5833AF583E493229E
:1003A500BB010689828A83F0225002F722BBFE0137
:0203B500F32231
:1003B700FAE6FB0808E6F925F0F618E6CA3AF62247
:1003C700D083D082F8E4937012740193700DA3A3C5
:1003D70093F8740193F5828883E4737402936860D9
:0603E700EFA3A3A380DFD9
:10058200EFB40A07740D12058D740A309811A899F8
:10059200B8130CC2983098FDA899C298B811F630D9
:0705A20099FDC299F59922B1
:00000001FF
