:03000000020ABD34
:0C0ABD00787FE4F6D8FD7581120209D89C
:070AD40000251003150824A2
:1009D80078087C007D007BFF7A0A79D47E007F0747
:1009E8001208D0120ADB120A827B007A00790812F8
:1009F8000A0E7B007A007908120A3D7B007A00799A
:060A08000812095E80FEE9
:050ADB00C2B5C2B62205
:060A0E008B0F8A10891114
:100A1400D2B57FBE120AAAE4F512AB0FAA10A9112F
:100A240085128275830012090FFF120AAA0512E5C6
:080A340012C3940740E4C2B5AF
:010A3C002297
:060A3D008B0F8A108911E5
:100A4300D2B57FBF120AAAE4F512120A6CAB0FAA41
:100A530010A911851282758300EF12093C0512E576
:080A630012C3940740E4C2B580
:010A6B002268
:100AAA00E4FEEF1392B4D2B6EFC313FFC2B60EBE82
:020ABA0008F042
:010ABC002217
:100A6C00E4FFFEEFC313FF30B403430780D2B6C2DA
:050A7C00B60EBE08EEFD
:010A81002252
:100A82007F38120AC97F0C120AC97F01120AC97F74
:040A920006020AC985
:0B0AC900C2A6C2A58F80D2A7C2A72240
:090A960012090FC4540F2430FFB3
:0B0A9F00D2A6C2A58F80D2A7C2A7225A
:10095E007F80120AC9900002120A969000021209B4
:10096E000F120A9A7F3A120A9F900001120A96906D
:10097E00000112090F120A9A7F3A120A9F1208F604
:10098E00120A991208F6120A9A7FC0120AC990002A
:10099E0004120A9690000412090F120A9A7F2F125F
:1009AE000A9F900005120A9690000512090F120A6E
:1009BE009A7F2F120A9F900006120A969000061236
:0A09CE00090F540F2430FF020A9FA6
:10080000E709F608DFFA8046E709F208DFFA803EDA
:1008100088828C83E709F0A3DFFA8032E309F608C7
:10082000DFFA8078E309F208DFFA807088828C832F
:10083000E309F0A3DFFA806489828A83E0A3F608E3
:10084000DFFA805889828A83E0A3F208DFFA804CBD
:1008500080D280FA80C680D4806980F28033801094
:1008600080A680EA809A80A880DA80E280CA8033FD
:1008700089828A83ECFAE493A3C8C582C8CCC58375
:10088000CCF0A3C8C582C8CCC583CCDFE9DEE78045
:100890000D89828A83E493A3F608DFF9ECFAA9F0C4
:1008A000EDFB2289828A83ECFAE0A3C8C582C8CC1A
:1008B000C583CCF0A3C8C582C8CCC583CCDFEADE33
:1008C000E880DB89828A83E493A3F208DFF980CC95
:1008D00088F0EF60010E4E60C388F0ED2402B4048E
:1008E0000050B9F582EB2402B4040050AF23234535
:0608F00082239008507302
:1008F600BB010689828A83E0225002E722BBFE0200
:09090600E32289828A83E4932232
:10090F00BB010CE58229F582E5833AF583E022509D
:10091F0006E92582F8E622BBFE06E92582F8E222E7
:0D092F00E58229F582E5833AF583E4932201
:10093C00F8BB010DE58229F582E5833AF583E8F0F1
:10094C00225006E92582C8F622BBFE05E92582C89D
:02095C00F22285
:00000001FF
