:10050A002E0054656D707261747572652069733A54
:04051A00002043007A
:0A03AC00022B0000013000013100B7
:1004D400D2B77F087E00120525C2B77F417E001285
:0B04E4000525D2B77F147E000205251D
:07051E001204EF7F0A7E00CA
:0B052500EF1FAC0670011E4C70F622A8
:1004B600E4FB7D08C2B7EBC313FBD2B730B70343E7
:0D04C60003807F047E00120525DDE9AF03F1
:0104D3002206
:0204EF00AD0757
:1004F1007B08C2B7ED1392B77F057E00120525D2A6
:08050100B7EDA2E713FDDBEAF0
:0105090022CF
:1002CC001204D47FCC1204EF7F4412051E1204D406
:1002DC007FCC1204EF7FBE12051E1204B68F3112B2
:1002EC0004B68F30EFFE7C00E42531FFEC3EC4F801
:1002FC0054F0C8EFC4540F48F533FF7E007D09124B
:0D030C0001067D0512016DEF2420F5292268
:10031900EF75F064842430F52FEF75F06484E5F00F
:1003290075F00A842430F52EEF75F00A84E5F0247F
:1003390030F52DEFF52AC3952A2430F532AF2F1267
:100349000540AF2E120540AF2D1205407BFF7A05FF
:0A035900790A120431AF32020540A8
:03000B000201A34C
:1001A300C0E0C0F0C083C082C0D075D000C000C022
:1001B30001C002C003C004C005C006C007052CE58A
:1001C3002C7002052B64907004E52B6401702A7F68
:1001D300801205307BFF7A05790C1204317FC0123F
:1001E30005301202CCAF331203197BFF7A05791B5A
:1001F300120431752B00752C00AF331204971200D3
:100203000EE533C394254012C2957F027E0012038C
:10021300ECD2957F027E001203ECD295758CFC75AF
:100223008A18D007D006D005D004D003D002D0015D
:0D023300D000D0D0D082D083D0F0D0E03207
:10040C0012047775A882758921759850758DFD75C4
:10041C008CFC758A18D28CD28EAF337E001203639B
:05042C0012045680F4EB
:0A03B60001370005380000000000C8
:10036300AB07AA067C007D64120118EF2430F53434
:100373007C007D64AF03AE021201187E007F0ACFBA
:10038300CDCFCECCCE120118EF2430F536AE02AF6E
:10039300037C007D0A120118ED2430F535853438CD
:0903A300853639F53A753B0A2252
:10045600E4F53D7438253DF8E6F5993099FDC299E5
:100466007F647E001203EC053DE53DC3940640E340
:010476002263
:1003C0000114000808000C000800040000141500C7
:1003D0003F0006005B004F0066006D007D000700D7
:0303E0007F006734
:100497007D037C00EF601775F00A8474102DF8A6B1
:0E04A700F0EF75F00A84FFED1D70E91C80E691
:0104B5002224
:10000E0074102514F8E6B40A0040030200E09000D4
:10001E0023F82828730200410200520200620200F7
:10002E00720200820200920200A20200B20200C21C
:10003E000200D2E51425E02408F808E6F5A085169E
:10004E00800200E0E51425E02408F808E6F5A08516
:10005E001880807EE51425E02408F808E6F5A085D2
:10006E001A80806EE51425E02408F808E6F5A085D0
:10007E001C80805EE51425E02408F808E6F5A085CE
:10008E001E80804EE51425E02408F808E6F5A085CC
:10009E002080803EE51425E02408F808E6F5A085CA
:1000AE002280802EE51425E02408F808E6F5A085C8
:1000BE002480801EE51425E02408F808E6F5A085C6
:1000CE002680800EE51425E02408F808E6F5A085C4
:0F00DE0028800514E514D394034003E4F514229D
:100477007F147E001203EC7F381205307F0E1205C1
:10048700307F061205307F011205307F800205306C
:100431008B3E8A3F8940AB3EAA3FA9401200ED6046
:10044100130540E5407002053F14F91200EDFF125B
:05045100054080E222DD
:100530008F80C2A61203E4C2A77F057E000203ECEF
:0A0540008F80D2A61203E4C2A722A6
:0803E400C2A5D2A77F017E0033
:1003EC00E4FDFCC3ED9FEC9E5015E4FBFA0BBB0047
:0F03FC00010AEB64704A70F50DBD00010C80E43E
:01040B0022CE
:03000000020240B9
:0C024000787FE4F6D8FD7581400202874B
:1000ED00BB010689828A83E0225002E722BBFE0211
:0900FD00E32289828A83E4932244
:10010600EF8DF0A4A8F0CF8CF0A428CE8DF0A42E0D
:02011600FE22C7
:10011800BC000BBE0029EF8DF084FFADF022E4CCCB
:10012800F875F008EF2FFFEE33FEEC33FCEE9DEC94
:10013800984005FCEE9DFE0FD5F0E9E4CEFD22EDDA
:10014800F8F5F0EE8420D21CFEADF075F008EF2F24
:10015800FFED33FD4007985006D5F0F222C398FD15
:050168000FD5F0EA22B2
:10016D00C2D5EC30E709B2D5E4C39DFDE49CFCEEAD
:10017D0030E715B2D5E4C39FFFE49EFE120118C30C
:10018D00E49DFDE49CFC800312011830D507C3E407
:06019D009FFFE49EFE221C
:10024C0002040CE493A3F8E493A34003F68001F2B8
:10025C0008DFF48029E493A3F85407240CC8C333B3
:10026C00C4540F4420C8834004F456800146F6DF82
:10027C00E4800B01020408102040809003ACE47E63
:10028C00019360BCA3FF543F30E509541FFEE49377
:10029C00A360010ECF54C025E060A840B8E493A33E
:1002AC00FAE493A3F8E493A3C8C582C8CAC583CA69
:1002BC00F0A3C8C582C8CAC583CADFE9DEE780BE21
:0103E3000019
:00000001FF
