:1004DC002E0054454D5045524154555245204953D8
:0404EC003A0063006F
:0B03E900022B0000012F00023000007A
:10037D008533993099FDC2997F647E0012044985B9
:10038D002E993099FDC2997F647E00120449852D06
:10039D00993099FDC2997F647E0012044975990ABE
:0C03AD003099FDC2997F647E0002044973
:1004A600D2B77F087E0012051FC2B77F417E0012B9
:0B04B600051FD2B77F147E0002051F57
:070518001204C17F0A7E00FE
:0B051F00EF1FAC0670011E4C70F622AE
:10048800E4FB7D08C2B7EBC313FBD2B730B7034315
:0D04980003807F047E0012051FDDE9AF0325
:0104A5002234
:0204C100AD0785
:1004C3007B08C2B7ED1392B77F057E0012051FD2DA
:0804D300B7EDA2E713FDDBEA1F
:0104DB0022FE
:1002E0001204A67FCC1204C17F441205181204A682
:1002F0007FCC1204C17FBE1205181204887530002D
:100300008F311204888F2FEF7F00FEEF2531FFE53C
:10031000303EC4F854F0C8EFC4540F48F534FF7EA3
:10032000007C007D0912011A7D0512012CEF2420AA
:03033000F529228A
:10033300EF75F064842430F533EF75F06484E5F0F1
:1003430075F00A842430F52EEF75F00A84E5F02465
:1003530030F52DEFF52AC3952A2430F532AF331249
:10036300053CAF2E12053CAF2D12053C7BFF7A04F2
:0A03730079DC120418AF3202053CD9
:03000B000201B738
:1001B700C0E0C0F0C083C082C0D075D000C000C00E
:1001C70001C002C003C004C005C006C007052CE576
:1001D7002C7002052B64907004E52B6401702A7F54
:1001E7008012052A7BFF7A0479DE1204187FC01279
:1001F700052A1202E0AF341203337BFF7A0479EE4B
:10020700120418752B00752C00AF34120469120004
:100217000EE534C394234012C2957F027E00120478
:1002270049D2957F027E00120449D295758CFC75E0
:100237008A18D007D006D005D004D003D002D00149
:0D024700D000D0D0D082D083D0F0D0E032F3
:1003B900D2A2D2A3D2A47580FFD2A2D2A3C2A4751D
:1003C90080791204F075A882758921759850758D08
:1003D900FD758CFC758A18D28CD28E12037D80FB38
:1004F0007F3812052A7F0C12052A7F0112052A7FF8
:040500008002052A46
:10052A008F80C2A5C2A6120443C2A77F0A7E000218
:02053A00044972
:10053C008F80C2A5D2A6120443C2A77F0A7E0002F6
:02054C00044960
:060418008B358A3689379E
:10041E00E4F538F539AB35AA36A9378539828538F2
:10042E00831200EDFF600D12053C0539E53970E5CC
:04043E00053880E11C
:010442002297
:10050400EF7007ED2480F53A8005ED24C0F53AAF8D
:040514003A02052A78
:06044300D2A77F0A7E0033
:10044900E4FDFCC3ED9FEC9E5015E4FBFA0BBB00E9
:0F045900010AEB64704A70F50DBD00010C80E4E0
:010468002271
:1003F4000114000808000C00080004000014150093
:100404003F0006005B004F0066006D007D000700A2
:030414007F006FF7
:100469007D037C00EF601775F00A8474102DF8A6DF
:0E047900F0EF75F00A84FFED1D70E91C80E6BF
:010487002252
:10000E0074102514F8E6B40A0040030200E09000D4
:10001E0023F82828730200410200520200620200F7
:10002E00720200820200920200A20200B20200C21C
:10003E000200D2E51425E02408F808E6F5A085169E
:10004E00800200E0E51425E02408F808E6F5A08516
:10005E001880807EE51425E02408F808E6F5A085D2
:10006E001A80806EE51425E02408F808E6F5A085D0
:10007E001C80805EE51425E02408F808E6F5A085CE
:10008E001E80804EE51425E02408F808E6F5A085CC
:10009E002080803EE51425E02408F808E6F5A085CA
:1000AE002280802EE51425E02408F808E6F5A085C8
:1000BE002480801EE51425E02408F808E6F5A085C6
:1000CE002680800EE51425E02408F808E6F5A085C4
:0F00DE0028800514E514D394034003E4F514229D
:03000000020254A5
:0C025400787FE4F6D8FD75813A02029B29
:1000ED00BB010CE58229F582E5833AF583E02250C8
:1000FD0006E92582F8E622BBFE06E92582F8E22212
:0D010D00E58229F582E5833AF583E493222B
:10011A00EF8DF0A4A8F0CF8CF0A428CE8DF0A42EF9
:02012A00FE22B3
:10012C00C2D5EC30E709B2D5E4C39DFDE49CFCEEEE
:10013C0030E715B2D5E4C39FFFE49EFE120162C303
:10014C00E49DFDE49CFC800312016230D507C3E4FE
:06015C009FFFE49EFE225D
:100260000203B9E493A3F8E493A34003F68001F2F8
:1002700008DFF48029E493A3F85407240CC8C3339F
:10028000C4540F4420C8834004F456800146F6DF6E
:10029000E4800B01020408102040809003E9E47E12
:1002A000019360BCA3FF543F30E509541FFEE49363
:1002B000A360010ECF54C025E060A840B8E493A32A
:1002C000FAE493A3F8E493A3C8C582C8CAC583CA55
:1002D000F0A3C8C582C8CAC583CADFE9DEE780BE0D
:0104170000E4
:10016200BC000BBE0029EF8DF084FFADF022E4CC81
:10017200F875F008EF2FFFEE33FEEC33FCEE9DEC4A
:10018200984005FCEE9DFE0FD5F0E9E4CEFD22ED90
:10019200F8F5F0EE8420D21CFEADF075F008EF2FDA
:1001A200FFED33FD4007985006D5F0F222C398FDCB
:0501B2000FD5F0EA2268
:00000001FF
