:100A2A00256868753A256868753A256868750025E5
:100A3A003032752C253032752C25303275005449E8
:100A4A004D453A003078256868783A3078256868E4
:100A5A00783A307825686878006E6F64617461004E
:060C770002090000C109A2
:060788008B228A23892464
:10078E007535FF75360A75372A7538007539007557
:10079E003A25753B00753C00753D27753E00753F4B
:1007AE00007540291203DD7535FF75360A75373928
:1007BE0085253885263985273A85283B85293C8528
:1007CE002A3D7B007A00792B12005FE4FDFF120BAD
:1007DE00DC7BFF7A0A7948120AC97D06E4FF120B08
:1007EE00DC7B007A00792B120AC97535FF75360A43
:1007FE0075374E753800753900753A25753B00759D
:10080E003C00753D27753E00753F00754029AB22B3
:10081E00AA23A9241203DDAF26AD28AB2A020B654D
:0C0C4B00758920758DFD759850D28E22A1
:0B0C57003098FDC298859908D2092250
:050C7E00D2B6C2B6224F
:0B0C6200EF4E6003D38001C392B42268
:040A6A00AD07AC0622
:100A6E00E4FBFAAF037E007401A807088005C333C8
:100A7E00CE33CED8F9FFEE5CFEEF5DFF120C6212A4
:0D0A8E000C7E0BBB00010AEB64084A70D619
:010A9B002238
:100A9C009000007E00120A6AE4FDFCE583C313F5A6
:100AAC0083E58213F58230B403438280120C7E0DF1
:0C0ABC00BD00010CED64084C70E1AF823D
:010AC800220B
:100BF000A905D2B57E00120A6AAF017E00120A6A08
:030C0000C2B52258
:10092900E4F522F523D2B57FBFFE120A6AE4FDFC85
:10093900E4F522F523FBFAE522C313F522E5231397
:10094900F52330B403432380120C7E0BBB00010A4C
:10095900EB64084A70E1ED25E0FFEC33FE74002FEB
:10096900F58274003EF583E522F0A3E523F00DBD81
:0B09790000010CED64084C70B7C2B523
:010984002250
:100B4100C2B5C2B6E4FD7F8E120BF07DAB7F901271
:100B51000BF07F81120A9CEF54816007E4FD7F80D6
:030B6100120BF084
:010B6400226E
:100B65008F328D33AF03AD077F80120BF0AD337F2E
:0B0B750082120BF0AD327F84020BF007
:030B8000A3E0FFF0
:100B83008F22E522C4540F2430FF120C28E522548F
:070B93000F2430FF020C28C3
:1009DB00E4FDFF120BDC7D06E4FF120BDC90000440
:1009EB00120B807F3A120C287F0A7E00120B217D9E
:1009FB0009E4FF120BDC900002120B807F3A120C01
:100A0B00287F0A7E00120B217D0CE4FF120BDC9079
:0F0A1B000000A3E0FF120B837F0A7E00020B2175
:100B9A008D0B8B0CAD077F86120BF0AD0B7F881285
:090BAA000BF0AD0C7F8C020BF086
:10098500E4FD7F01120BDC7D067F01120BDC90007C
:1009950006A3E0FF120B837F3A120C287F0A7E0024
:1009A500120B217D097F01120BDC900008A3E0FFEB
:1009B500120B837F3A120C287F0A7E00120B217DD1
:1009C5000C7F01120BDC90000CA3E0FF120B837F60
:0609D5000A7E00020B2166
:1008BA00120BC8120B41120C4B120C57300955E59A
:1008CA0008646E70367418250AF58274003509F5C5
:1008DA0083E4F0900018E0B474DF7F80120C167F76
:1008EA00E87E03120B217B017A007919120788D25C
:1008FA00B5120929C2B51209DB80F47418250AF564
:10090A008274003509F583E508F0050AE50A70A93D
:0F091A00050980A57BFF7A0A7963120AC9809AC2
:100BC8007F38120C167F0C120C167F01120C167F40
:040BD80080020C1675
:100BB300120676FF90000112068FFD9000021206C6
:050BC3008FFB020B9AFC
:100C16008F80C2A5C2A6120B1BC2A77F0A7E000246
:020C26000B21A0
:100C28008F80C2A5D2A6120B1BC2A77F0A7E000224
:020C38000B218E
:060AC9008B328A338934F0
:100ACF00E4F535F536AB32AA33A934853682853550
:100ADF008312068FFF600D120C280536E53670E580
:040AEF00053580E168
:010AF30022E0
:100BDC00EF7007ED2480F5328005ED24C0F532AFBF
:040BEC0032020C16AF
:060B1B00D2A77F0A7E0054
:100B2100E4FDFCC3ED9FEC9E5015E4FBFA0BBB000A
:0F0B3100010AEB647F4A70F50DBD00010C80E4F2
:010B40002292
:0300000002082EC5
:0C082E00787FE4F6D8FD75814B02087558
:10067600BB010689828A83E0225002E722BBFE0282
:09068600E32289828A83E49322B5
:10068F00BB010CE58229F582E5833AF583E0225020
:10069F0006E92582F8E622BBFE06E92582F8E2226A
:0D06AF00E58229F582E5833AF583E4932284
:10000300E5412435F8E60541227832300702783598
:10001300E475F00112071E0206762000EB7F2ED254
:10002300008018EF540F2490D43440D4FF30040BD5
:10003300EF24BFB41A0050032461FFE542600215A8
:10004300420545E5457002054430070D7832E475F5
:10005300F00112071EEF0206BC020AF47403D20772
:100063008003E4C207F5418B328A338934E4F542D5
:10007300F544F545E54260077F2012003E80F575A3
:1000830043FFC201C200C202C203C205C206C208C4
:1000930012000CFF700D3007057F0012004FAF45B3
:1000A300AE4422B4255FC2D5C20412000CFF24D093
:1000B300B40A00501A75F00A784230D50508B6FF25
:1000C3000106C6A426F620D5047002D20380D924E3
:1000D300CFB41A00EF5004C2E5D20402024FD2019A
:1000E30080C6D20080C0D20280BCD2D580BAD205ED
:1000F30080B47F2012003E2002077401B542004005
:10010300F1120003FF12003E020077D208D20680EC
:1001130095120003FB120003FA120003F94A4B7015
:100123000679207A037BFF20022EE542602A7E00B7
:100133008E8275830012068F60060EEE654370F0A3
:10014300C2D5EBC0E0EAC0E0E9C0E0EE120296D00F
:10015300E0F9D0E0FAD0E0FB120676FF60AAEBC02C
:10016300E0EAC0E0E9C0E012003ED0E02401F9D0AB
:10017300E03400FAD0E0FBE5430460DCD543D980EA
:10018300877BFF7A027992D202809C791080027970
:1001930008C206C2088008D2D5790A8004790AC247
:1001A300D5E543047002F543E4FAFDFEFF120003B4
:1001B300FC7B08200113120003FD7B1030000A12A0
:1001C3000003FE120003FF7B20EC3382D592D5504F
:1001D30013C3E43000069FFFE49EFEE42001039D69
:1001E300FDE49CFCE4CBF8C201EC700CCFCECDCC8B
:1001F300E824F8F870F38017C3EF33FFEE33FEED16
:1002030033FDEC33FCEB33FB994002FB0FD8E9EBF6
:10021300300105F8D0E0C448B201C0E00AEC4D4E0D
:100223004F78207B0070C2EAB5430040BCC0E012A7
:100233000298D0F0D0E0200104C4C0E0C4B201C0F1
:10024300F0120027D0F0D5F0EB02007712073E0141
:100253001453018E5800E54C00E14201924F019A7C
:0F02630044019A4900FA4301A0550184460184E1
:100272004501844703405000E92D00ED2E01102B6B
:1002820000F123010E2003292A00A94800000108D9
:100292003F3F3F00790AA2D5200314300509B91067
:1002A200020404B9080104A2D52006025001042068
:1002B20002689202B542005034C0E07F2030031938
:1002C2007F30A20272067205500F1202EFC202C202
:1002D20006C205C2087F30800F300503E9C0E01274
:1002E200003E300503D0E0F9D0E0B542CC3005172E
:1002F2007F30B9100C12003E7F583004077F78809F
:1003020003B9080312003E3002057F2D02003E7F32
:10031200202008F87F2B2006F322920280CF286E3D
:10032200756C6C2900D2011200033001F8C2017809
:100332004230D50108F60200A92D50434958120057
:10034200032403B405004001E490033B9312002F01
:0D035200743A12002FD20375420402018E8E
:10035F00E54730030104F823282435F8227832309A
:10036F0003027835E475F00112071E02067660EC81
:10037F00C54B7002154A14C54B200304FF020C83B2
:10038F00783274FFF5F002072EFF020C03E5486088
:10039F0006D548037F002220030F120C3AEF6008A6
:1003AF00054BE54B7002054A2278321207151206EB
:1003BF0076FF60E97832E475F00112071E80DE12D5
:1003CF0003A6EFC0E0120398D0E040F380A0D20361
:1003DF008002C2038B328A338934E4F549F547F53D
:1003EF004AF54B754800C202C200C201C204120393
:1003FF006CFF7005AF497E0022B4253012036CFFED
:10040F0024D0B40A00500C75F00AC548A42548F54D
:10041F004880E924CFB41A00EF5002C2E502064229
:10042F00D20180D8D20080D4D20480D0EF120398AA
:10043F0050081203CEEF600E80A9EFC0E01203A6A2
:10044F00D0E06F609EEF607412037D80A71203A649
:10045F00EF6069E5487007054880031203A6EF6057
:10046F001420040E12035FE475F00112071EEF1241
:10047F0006BCD548E62004040547054980BA120397
:10048F009CEFC0E0120398D0E0500412037DE4FF0C
:10049F0020040E12035FE475F00112071EEF12061F
:1004AF00BCEF70DA20040405470549808BE54860EE
:1004BF000205481203CE12039CEF70C6300304E40A
:1004CF0012037DE54960030204037EFF7FFF2220B4
:1004DF00041174FFFCFDFEFF12035F1207151206D5
:1004EF00FB05470203F2D0E080D27900800A791031
:1004FF00800679088002790AD205E548600205482E
:10050F00E9C0E01203CEEF60DD1203A6BF2D04D2C7
:10051F00028003BF2B091203CEEF60CA12039CD0D7
:10052F00E0B40A028033B40802802EBF3027700275
:10053F007408C205C0E012039CD0E0BF78028003AC
:10054F00BF58160548D548028007D54804D2058004
:10055F000B741080197002740ABF000AEFF8E4FCE4
:10056F00FDFEFF0205F5C0E0EF12037DD0E0F9E4D8
:10057F00FCFDFEFFE9C0E0ECC0E0EDC0E0EEC0E046
:10058F00EFC0E012039CEFF8D0E0FFD0E0FED0E028
:10059F00FDD0E0FCD0F0E8604DB461004007B47BC3
:1005AF00005002C2E524D0503DFA24F6500724F93A
:1005BF005034240AFAEAB5F000502BCFA9F0A42F3B
:1005CF00FF92D5E9C5F0CEA4A2D53EFE92D5E9C5DE
:1005DF00F0CDA4A2D53DFD92D5E9C5F0CCA4A2D50E
:0B05EF003CFCC205808EE8C0E0200448
:1005FA002A20050805493002031206ED12035F128C
:10060A000715054720000B20010DEE8FF01206CECC
:10061A0080091206FB8004EF1206BCD0E012037DAB
:10062A000203F220041012035F1207150547E54A78
:10063A00854BF01206CE80E812073E04BC5304FD37
:10064A005804334C042F42040B4805014F05054456
:10065A00045C4304F94905055504DE4604DE4504F5
:0C066A00DE4704372A062D4E0000043B3A
:10083A000208BAE493A3F8E493A34003F68001F212
:10084A0008DFF48029E493A3F85407240CC8C333BF
:10085A00C4540F4420C8834004F456800146F6DF8E
:10086A00E4800B0102040810204080900C77E47E9B
:10087A00019360BCA3FF543F30E509541FFEE49383
:10088A00A360010ECF54C025E060A840B8E493A34A
:10089A00FAE493A3F8E493A3C8C582C8CAC583CA75
:1008AA00F0A3C8C582C8CAC583CADFE9DEE780BE2D
:010C7D000076
:1006BC00BB010689828A83F0225002F722BBFE011D
:0206CC00F32217
:1006CE00BB010A89828A83F0E5F0A3F0225006F777
:0F06DE0009A7F01922BBFE06F3E5F009F3192274
:0E06ED00C3E49FFFE49EFEE49DFDE49CFC221E
:1006FB00BB010789828A830207705005E9F802075C
:0A070B0064BBFE05E9F802077C223A
:09071500E6FB08E6FA08E6F92209
:10071E00FAE6FB0808E6F925F0F618E6CA3AF622DC
:10072E00FAE6FB0808E625F0F9F618E63AFAF6229C
:10073E00D083D082F8E4937012740193700DA3A34A
:10074E0093F8740193F5828883E47374029368605E
:06075E00EFA3A3A380DF5E
:100AF400EFB40A07740D120AFF740A309811A8990A
:100B0400B8130CC2983098FDA899C298B811F63061
:070B140099FDC299F5992239
:100C3A00100A0B120C6DBF0D027F0A020AF4AF0DE7
:010C4A002287
:050C83008F0DD20A22D2
:100C0300EFC394094005EF940E4003BF2003D38044
:030C130001C322F8
:0C076400ECF608EDF608EEF608EFF622C1
:0C077000ECF0A3EDF0A3EEF0A3EFF022FC
:0C077C00ECF208EDF208EEF208EFF222B9
:0A0C6D003098FDAF99C2987E002276
:00000001FF
